R0150859225000176LOTEADORA HORIZONTE LTDA                                                           
R022023                                                                                             
IR50859225000176202300006935447825MARIA SILVA SANTOS                      VENDA38LOTE01QUADRAA2024031500000000015000
IR50859225000176202300006935447826JOAO PEDRO OLIVEIRA                     VENDA687LOTE05QUADRA2024032000000000018027
IR50859225000176202300006935447827ANA CAROLINA LIMA                       VENDA24LOTE08QUADRAC2024040500000000020048
IR50859225000176202300006935447828ANA CAROLINA LIMA                       DISTRATO218LOTE08QUA2024101100000000-20000
IR50859225000176202300006935447829CARLOS EDUARDO SANTOS                   VENDASNLOTE03QUADRAD2024022800000000016500
IR50859225000176202300006935447830MARIANA COSTA PEREIRA                   VENDA117LOTE12QUADRA2024013100000000017568
IR50859225000176202300006935447831PEDRO HENRIQUE SOUZA                    VENDA110LOTE07QUADRA2024101000000000019057
IR50859225000176202300006935447832PEDRO HENRIQUE SOUZA                    DISTRATO480LOTE07QUA2024112700000000-19148
IR50859225000176202300006935447833FERNANDA OLIVEIRA LIMA                  VENDA18LOTE15QUADRAG2024071100000000022259
IR50859225000176202300006935447834ROBERTO CARLOS SILVA                    VENDASNLOTE09QUADRAH2024041800000000019500
IR50859225000176202300006935447835ROBERTO CARLOS SILVA                    CESSAODISTRATO637LOT2024120100000000-19500
IR50859225000176202300006935447836LUCAS MENDES FERREIRA                   CESSAOVENDA983LOTE092024101300000000019500
IR50859225000176202312526400000175FLOR DO VALE LOTEAMENTOS LTDA           DACAO49LOTE20QUADRAI2024062200000000025699
IR50859225000176202300006935447838JOSE DA SILVA                           PERMUTA587LOTE25QUAD2024092900000000021000
IR50859225000176202300006935447839MARIA DAS DORES                         PERMUTA25LOTE30QUADR2024073100000000021479
IR50859225000176202300006935447840CASAL SILVA E SOUZA                     VENDACONJUGADA1098LO2024080900000000030000
IR50859225000176202300006935447841FABIO BORGES DOS SANTOS                 DISTRATO253LOTE01QUA2024081500000000-32055
IR50859225000176202300006935447842ROBERTA MARTINS LEAL                    CESSAOVENDA985LOTE252024113000000000018430
IR50859225000176202353895225000149CASANOVA LOTEADORA E CIA LTDA           DACAO211LOTE32QUADRA2024031200000000022411
IR50859225000176202300006935447844EDUARDO MOURA E LUISA REIS              VENDACONJUGADASNLOTE2024121800000000022170
IR50859225000176202300006935447845NICOLLAS NOAH CRUZ FREIRE               DISTRATOSNLOTE18QUAD2024112600000000-20000
IR50859225000176202300006935447846HELDER LUCAS LIMA DE ASSIS              VENDA785LOTE22QUADRA2024101900000000045000
IR50859225000176202300006935447847ANGELINO COSTA RODRIGUES                DISTRATO1530LOTE64QU2024061500000000-25860
