R0100000000000000CPFCOMPRADOR                                                                       
R020000                                                                                             
IR00000000000000123456780001990000000000000098765432100                             MARIA SILVA SANTOS  0000000000000000000000
IR00000000000000123456780001990000000000000045678912300                             JOAO PEDRO OLIVEIRA 0000000000000000000000
IR00000000000000123456780001990000000000000078912345600                             ANA CAROLINA LIMA   0000000000000000000000
IR00000000000000123456780001990000000000000078912345600                             ANA CAROLINA LIMA   0000000000000000000000
IR00000000000000123456780001990000000000000032165498700                             CARLOS EDUARDO SANTO0000000000000000000000
IR00000000000000123456780001990000000000000065432198700                             MARIANA COSTA PEREIR0000000000000000000000
IR00000000000000123456780001990000000000000012378945600                             PEDRO HENRIQUE SOUZA0000000000000000000000
IR00000000000000123456780001990000000000000012378945600                             PEDRO HENRIQUE SOUZA0000000000000000000000
IR00000000000000123456780001990000000000000098732165400                             FERNANDA OLIVEIRA LI0000000000000000000000
IR00000000000000123456780001990000000000000045612378900                             ROBERTO CARLOS SILVA0000000000000000000000
IR00000000000000123456780001990000000000000045612378900                             ROBERTO CARLOS SILVA0000000000000000000000
IR00000000000000123456780001990000000000000011122233344                             LUCAS MENDES FERREIR0000000000000000000000
IR00000000000000123456780001990000000000000055566677788                             EMPRESA CREDORA LTDA0000000000000000000000
IR00000000000000123456780001990000000000000099988877766                             JOSE DA SILVA       0000000000000000000000
IR00000000000000123456780001990000000000000044433322211                             MARIA DAS DORES     0000000000000000000000
IR00000000000000123456780001990000000000000077788899900                             CASAL SILVA E SOUZA 0000000000000000000000
