R0100000000002023LOTEADORA HORIZONTE LTDA                                                           
R022023                                                                                             
IR00000000002023202300000000000000VENDA38LOTE01QUADRAA                    202500000000        0000000000000000000000
IR00000000002023202300000000000000VENDA687LOTE05QUADRA                    202500000000        0000000000000000000000
IR00000000002023202300000000000000VENDA24LOTE08QUADRAC                    202500000000        0000000000000000000000
IR00000000002023202300000000000000DISTRATO218LOTE08QUA                    202500000000        0000000000000000000000
IR00000000002023202300000000000000VENDA113LOTE03QUADRA                    202500000000        0000000000000000000000
IR00000000002023202300000000000000VENDA117LOTE12QUADRA                    202500000000        0000000000000000000000
IR00000000002023202300000000000000VENDA110LOTE07QUADRA                    202500000000        0000000000000000000000
IR00000000002023202300000000000000DISTRATO480LOTE07QUA                    202500000000        0000000000000000000000
IR00000000002023202300000000000000VENDA18LOTE15QUADRAG                    202500000000        0000000000000000000000
IR00000000002023202300000000000000VENDA69LOTE09QUADRAH                    202500000000        0000000000000000000000
IR00000000002023202300000000000000CESSAODISTRATO637LOT                    202500000000        0000000000000000000000
IR00000000002023202300000000000000CESSAOVENDA983LOTE09                    202500000000        0000000000000000000000
IR00000000002023202300000000000000DACAO49LOTE20QUADRAI                    202500000000        0000000000000000000000
IR00000000002023202300000000000000PERMUTA587LOTE25QUAD                    202500000000        0000000000000000000000
IR00000000002023202300000000000000PERMUTA25LOTE30QUADR                    202500000000        0000000000000000000000
IR00000000002023202300000000000000VENDACONJUGADA1098LO                    202500000000        0000000000000000000000
