R0150859225000176LOTEADORA HORIZONTE LTDA                                                           
R022023                                                                                             
IR50859225000176202300098765432100MARIA SILVA SANTOS                      VENDA38LOTE01QUADRAA2024031500000015000000
IR50859225000176202300045678912300JOAO PEDRO OLIVEIRA                     VENDA687LOTE05QUADRA2024032000000018000000
IR50859225000176202300078912345600ANA CAROLINA LIMA                       VENDA24LOTE08QUADRAC2024040500000020000000
IR50859225000176202300078912345600ANA CAROLINA LIMA                       DISTRATO218LOTE08QUA2024061000000-20000000
IR50859225000176202300032165498700CARLOS EDUARDO SANTOS                   VENDASNLOTE03QUADRAD2024041500000016500000
IR50859225000176202300065432198700MARIANA COSTA PEREIRA                   VENDA117LOTE12QUADRA2024050100000017500000
IR50859225000176202300012378945600PEDRO HENRIQUE SOUZA                    VENDA110LOTE07QUADRA2024051500000019000000
IR50859225000176202300012378945600PEDRO HENRIQUE SOUZA                    DISTRATO480LOTE07QUA2024072000000-19000000
IR50859225000176202300098732165400FERNANDA OLIVEIRA LIMA                  VENDA18LOTE15QUADRAG2024060100000022000000
IR50859225000176202300045612378900ROBERTO CARLOS SILVA                    VENDASNLOTE09QUADRAH2024061500000019500000
IR50859225000176202300045612378900ROBERTO CARLOS SILVA                    CESSAODISTRATO637LOT2024081000000-19500000
IR50859225000176202300011122233344LUCAS MENDES FERREIRA                   CESSAOVENDA983LOTE092024081000000019500000
IR50859225000176202300055566677788EMPRESA CREDORA LTDA                    DACAO49LOTE20QUADRAI2024081500000025000000
IR50859225000176202300099988877766JOSE DA SILVA                           PERMUTA587LOTE25QUAD2024090100000021000000
IR50859225000176202300044433322211MARIA DAS DORES                         PERMUTA25LOTE30QUADR2024090100000021000000
IR50859225000176202300077788899900CASAL SILVA E SOUZA                     VENDACONJUGADA1098LO2024091500000030000000
