R0100000000000000RAZAOSOCIAL                                                                        
R020000                                                                                             
IR50859225000176000000098765432100MARIA SILVA SANTOS                      VENDA38LOTE01QUADRAA2025010200000000000000
IR50859225000176000000045678912300JOAO PEDRO OLIVEIRA                     VENDA687LOTE05QUADRA2025010200000000000000
IR50859225000176000000078912345600ANA CAROLINA LIMA                       VENDA24LOTE08QUADRAC2025010200000000000000
IR50859225000176000000078912345600ANA CAROLINA LIMA                       DISTRATO218LOTE08QUA20250103000000000000-0
IR50859225000176000000032165498700CARLOS EDUARDO SANTOS                   VENDA113LOTE03QUADRA2025010200000000000000
IR50859225000176000000065432198700MARIANA COSTA PEREIRA                   VENDA117LOTE12QUADRA2025010200000000000000
IR50859225000176000000012378945600PEDRO HENRIQUE SOUZA                    VENDA110LOTE07QUADRA2025010200000000000000
IR50859225000176000000012378945600PEDRO HENRIQUE SOUZA                    DISTRATO480LOTE07QUA20250103000000000000-0
IR50859225000176000000098732165400FERNANDA OLIVEIRA LIMA                  VENDA18LOTE15QUADRAG2025010200000000000000
IR50859225000176000000045612378900ROBERTO CARLOS SILVA                    VENDA69LOTE09QUADRAH2025010200000000000000
IR50859225000176000000045612378900ROBERTO CARLOS SILVA                    CESSAODISTRATO637LOT20250103000000000000-0
IR50859225000176000000011122233344LUCAS MENDES FERREIRA                   CESSAOVENDA983LOTE092025010200000000000000
IR50859225000176000000055566677788EMPRESA CREDORA LTDA                    DACAO49LOTE20QUADRAI0000000000000000000000
IR50859225000176000000099988877766JOSE DA SILVA                           PERMUTA587LOTE25QUAD2025010200000000000000
IR50859225000176000000044433322211MARIA DAS DORES                         PERMUTA25LOTE30QUADR2025010200000000000000
IR50859225000176000000077788899900CASAL SILVA E SOUZA                     VENDACONJUGADA1098LO0000000000000000000000
